{
  "_format": "hh-sol-artifact-1",
  "contractName": "PiggyBankFactory",
  "sourceName": "contracts/PiggyBankFactory.sol",
  "abi": [
    {
      "anonymous": false,
      "inputs": [
        {
          "indexed": true,
          "internalType": "address",
          "name": "owner",
          "type": "address"
        },
        {
          "indexed": false,
          "internalType": "address",
          "name": "bankAddress",
          "type": "address"
        }
      ],
      "name": "PiggyBankCreated",
      "type": "event"
    },
    {
      "inputs": [
        {
          "internalType": "uint256",
          "name": "",
          "type": "uint256"
        }
      ],
      "name": "allBanks",
      "outputs": [
        {
          "internalType": "address",
          "name": "",
          "type": "address"
        }
      ],
      "stateMutability": "view",
      "type": "function"
    },
    {
      "inputs": [
        {
          "internalType": "address",
          "name": "",
          "type": "address"
        },
        {
          "internalType": "uint256",
          "name": "",
          "type": "uint256"
        }
      ],
      "name": "banksByOwner",
      "outputs": [
        {
          "internalType": "address",
          "name": "",
          "type": "address"
        }
      ],
      "stateMutability": "view",
      "type": "function"
    },
    {
      "inputs": [
        {
          "internalType": "uint256",
          "name": "_unLockTime",
          "type": "uint256"
        }
      ],
      "name": "createPiggyBank",
      "outputs": [],
      "stateMutability": "nonpayable",
      "type": "function"
    },
    {
      "inputs": [],
      "name": "getAllBanks",
      "outputs": [
        {
          "internalType": "address[]",
          "name": "",
          "type": "address[]"
        }
      ],
      "stateMutability": "view",
      "type": "function"
    },
    {
      "inputs": [],
      "name": "getMyBanks",
      "outputs": [
        {
          "internalType": "address[]",
          "name": "",
          "type": "address[]"
        }
      ],
      "stateMutability": "view",
      "type": "function"
    }
  ],
  "bytecode": "0x6080604052348015600f57600080fd5b506128158061001f6000396000f3fe608060405234801561001057600080fd5b50600436106100575760003560e01c80634adc5fa31461005c578063951c8a0714610078578063ba5c6f2c14610096578063dd6f3c70146100c6578063e516e75e146100f6575b600080fd5b610076600480360381019061007191906104f6565b610114565b005b610080610259565b60405161008d9190610613565b60405180910390f35b6100b060048036038101906100ab9190610661565b6102e7565b6040516100bd91906106b0565b60405180910390f35b6100e060048036038101906100db91906104f6565b610335565b6040516100ed91906106b0565b60405180910390f35b6100fe610374565b60405161010b9190610613565b60405180910390f35b600081336040516101249061043f565b61012f9291906106da565b604051809103906000f08015801561014b573d6000803e3d6000fd5b50905060008190506000819080600181540180825580915050600190039060005260206000200160009091909190916101000a81548173ffffffffffffffffffffffffffffffffffffffff021916908373ffffffffffffffffffffffffffffffffffffffff1602179055506000600160003373ffffffffffffffffffffffffffffffffffffffff1673ffffffffffffffffffffffffffffffffffffffff16815260200190815260200160002090805461020592919061044c565b503373ffffffffffffffffffffffffffffffffffffffff167f09f42ca962ab38b126f82c851e2ec619e478d3234034ce070855fcca0c27d49d8260405161024c91906106b0565b60405180910390a2505050565b606060008054806020026020016040519081016040528092919081815260200182805480156102dd57602002820191906000526020600020905b8160009054906101000a900473ffffffffffffffffffffffffffffffffffffffff1673ffffffffffffffffffffffffffffffffffffffff1681526020019060010190808311610293575b5050505050905090565b6001602052816000526040600020818154811061030357600080fd5b906000526020600020016000915091509054906101000a900473ffffffffffffffffffffffffffffffffffffffff1681565b6000818154811061034557600080fd5b906000526020600020016000915054906101000a900473ffffffffffffffffffffffffffffffffffffffff1681565b6060600160003373ffffffffffffffffffffffffffffffffffffffff1673ffffffffffffffffffffffffffffffffffffffff16815260200190815260200160002080548060200260200160405190810160405280929190818152602001828054801561043557602002820191906000526020600020905b8160009054906101000a900473ffffffffffffffffffffffffffffffffffffffff1673ffffffffffffffffffffffffffffffffffffffff16815260200190600101908083116103eb575b5050505050905090565b6120dc8061070483390190565b82805482825590600052602060002090810192821561048d5760005260206000209182015b8281111561048c578254825591600101919060010190610471565b5b50905061049a919061049e565b5090565b5b808211156104b757600081600090555060010161049f565b5090565b600080fd5b6000819050919050565b6104d3816104c0565b81146104de57600080fd5b50565b6000813590506104f0816104ca565b92915050565b60006020828403121561050c5761050b6104bb565b5b600061051a848285016104e1565b91505092915050565b600081519050919050565b600082825260208201905092915050565b6000819050602082019050919050565b600073ffffffffffffffffffffffffffffffffffffffff82169050919050565b600061057a8261054f565b9050919050565b61058a8161056f565b82525050565b600061059c8383610581565b60208301905092915050565b6000602082019050919050565b60006105c082610523565b6105ca818561052e565b93506105d58361053f565b8060005b838110156106065781516105ed8882610590565b97506105f8836105a8565b9250506001810190506105d9565b5085935050505092915050565b6000602082019050818103600083015261062d81846105b5565b905092915050565b61063e8161056f565b811461064957600080fd5b50565b60008135905061065b81610635565b92915050565b60008060408385031215610678576106776104bb565b5b60006106868582860161064c565b9250506020610697858286016104e1565b9150509250929050565b6106aa8161056f565b82525050565b60006020820190506106c560008301846106a1565b92915050565b6106d4816104c0565b82525050565b60006040820190506106ef60008301856106cb565b6106fc60208301846106a1565b939250505056fe608060405234801561001057600080fd5b506040516120dc3803806120dc8339818101604052810190610032919061016b565b814210610074576040517f08c379a000000000000000000000000000000000000000000000000000000000815260040161006b9061022e565b60405180910390fd5b6000808190555060006001819055508160028190555080600360006101000a81548173ffffffffffffffffffffffffffffffffffffffff021916908373ffffffffffffffffffffffffffffffffffffffff160217905550505061024e565b600080fd5b6000819050919050565b6100ea816100d7565b81146100f557600080fd5b50565b600081519050610107816100e1565b92915050565b600073ffffffffffffffffffffffffffffffffffffffff82169050919050565b60006101388261010d565b9050919050565b6101488161012d565b811461015357600080fd5b50565b6000815190506101658161013f565b92915050565b60008060408385031215610182576101816100d2565b5b6000610190858286016100f8565b92505060206101a185828601610156565b9150509250929050565b600082825260208201905092915050565b7f556e6c6f636b7474696d652073686f756c6420626520696e207468652066757460008201527f7572650000000000000000000000000000000000000000000000000000000000602082015250565b60006102186023836101ab565b9150610223826101bc565b604082019050919050565b600060208201905081810360008301526102478161020b565b9050919050565b611e7f8061025d6000396000f3fe6080604052600436106100c25760003560e01c806393525ca91161007f578063e20363f511610059578063e20363f51461025f578063e4af29fc1461028a578063f879eb57146102b5578063facc7905146102e0576100c2565b806393525ca9146101a2578063bf9e30c4146101e3578063cc8887f114610222576100c2565b806333833037146100c7578063586f7eba146100f2578063613c9989146101095780636f0372af146101325780638da5cb5b1461015b578063907e118914610186575b600080fd5b3480156100d357600080fd5b506100dc61030b565b6040516100e991906114de565b60405180910390f35b3480156100fe57600080fd5b506101076103e4565b005b34801561011557600080fd5b50610130600480360381019061012b91906115ad565b6105dc565b005b34801561013e57600080fd5b5061015960048036038101906101549190611600565b610a51565b005b34801561016757600080fd5b50610170610d4e565b60405161017d9190611676565b60405180910390f35b6101a0600480360381019061019b9190611600565b610d74565b005b3480156101ae57600080fd5b506101c960048036038101906101c49190611691565b61137a565b6040516101da959493929190611748565b60405180910390f35b3480156101ef57600080fd5b5061020a6004803603810190610205919061179b565b6113fa565b60405161021993929190611810565b60405180910390f35b34801561022e57600080fd5b506102496004803603810190610244919061179b565b611451565b60405161025691906114de565b60405180910390f35b34801561026b57600080fd5b50610274611469565b60405161028191906114de565b60405180910390f35b34801561029657600080fd5b5061029f6114b3565b6040516102ac91906114de565b60405180910390f35b3480156102c157600080fd5b506102ca6114b9565b6040516102d791906114de565b60405180910390f35b3480156102ec57600080fd5b506102f56114bf565b60405161030291906114de565b60405180910390f35b6000806000905060005b600560003373ffffffffffffffffffffffffffffffffffffffff1673ffffffffffffffffffffffffffffffffffffffff168152602001908152602001600020805490508110156103dc57600560003373ffffffffffffffffffffffffffffffffffffffff1673ffffffffffffffffffffffffffffffffffffffff16815260200190815260200160002081815481106103b0576103af611847565b5b906000526020600020906005020160030154826103cd91906118a5565b91508080600101915050610315565b508091505090565b6000600660003373ffffffffffffffffffffffffffffffffffffffff1673ffffffffffffffffffffffffffffffffffffffff1681526020019081526020016000206000015414610469576040517f08c379a000000000000000000000000000000000000000000000000000000000815260040161046090611936565b60405180910390fd5b6001600081548092919061047c90611956565b9190505550604051806060016040528060015481526020013373ffffffffffffffffffffffffffffffffffffffff168152602001600060018111156104c4576104c36116d1565b5b815250600660003373ffffffffffffffffffffffffffffffffffffffff1673ffffffffffffffffffffffffffffffffffffffff1681526020019081526020016000206000820151816000015560208201518160010160006101000a81548173ffffffffffffffffffffffffffffffffffffffff021916908373ffffffffffffffffffffffffffffffffffffffff16021790555060408201518160010160146101000a81548160ff02191690836001811115610582576105816116d1565b5b02179055509050503373ffffffffffffffffffffffffffffffffffffffff167f9054578524f1f8f047a7001fb0fcdb111017586efd0714feea5208e52353b4416001546040516105d291906114de565b60405180910390a2565b600060018111156105f0576105ef6116d1565b5b600660003373ffffffffffffffffffffffffffffffffffffffff1673ffffffffffffffffffffffffffffffffffffffff16815260200190815260200160002060010160149054906101000a900460ff166001811115610652576106516116d1565b5b14610689576040517faba4733900000000000000000000000000000000000000000000000000000000815260040160405180910390fd5b600073ffffffffffffffffffffffffffffffffffffffff16600660003373ffffffffffffffffffffffffffffffffffffffff1673ffffffffffffffffffffffffffffffffffffffff16815260200190815260200160002060010160009054906101000a900473ffffffffffffffffffffffffffffffffffffffff1673ffffffffffffffffffffffffffffffffffffffff160361075a576040517f08c379a0000000000000000000000000000000000000000000000000000000008152600401610751906119ea565b60405180910390fd5b60008081548092919061076c90611956565b9190505550600660003373ffffffffffffffffffffffffffffffffffffffff1673ffffffffffffffffffffffffffffffffffffffff168152602001908152602001600020600001549250600660003373ffffffffffffffffffffffffffffffffffffffff1673ffffffffffffffffffffffffffffffffffffffff16815260200190815260200160002060010160009054906101000a900473ffffffffffffffffffffffffffffffffffffffff16915060006040518060a0016040528060005481526020018581526020018473ffffffffffffffffffffffffffffffffffffffff1681526020016000815260200183600181111561086c5761086b6116d1565b5b8152509050600054600460008573ffffffffffffffffffffffffffffffffffffffff1673ffffffffffffffffffffffffffffffffffffffff16815260200190815260200160002081905550600560003373ffffffffffffffffffffffffffffffffffffffff1673ffffffffffffffffffffffffffffffffffffffff168152602001908152602001600020819080600181540180825580915050600190039060005260206000209060050201600090919091909150600082015181600001556020820151816001015560408201518160020160006101000a81548173ffffffffffffffffffffffffffffffffffffffff021916908373ffffffffffffffffffffffffffffffffffffffff1602179055506060820151816003015560808201518160040160006101000a81548160ff021916908360018111156109b0576109af6116d1565b5b021790555050503373ffffffffffffffffffffffffffffffffffffffff167fade0dca7a3d60b93dc10533e5f97a0146b67c0be8ea413443630699b6618d0b9600054600660003373ffffffffffffffffffffffffffffffffffffffff1673ffffffffffffffffffffffffffffffffffffffff16815260200190815260200160002060000154604051610a43929190611a0a565b60405180910390a250505050565b8273ffffffffffffffffffffffffffffffffffffffff16600660003373ffffffffffffffffffffffffffffffffffffffff1673ffffffffffffffffffffffffffffffffffffffff16815260200190815260200160002060010160009054906101000a900473ffffffffffffffffffffffffffffffffffffffff1673ffffffffffffffffffffffffffffffffffffffff1614610b21576040517f08c379a0000000000000000000000000000000000000000000000000000000008152600401610b1890611a7f565b60405180910390fd5b6000600660003373ffffffffffffffffffffffffffffffffffffffff1673ffffffffffffffffffffffffffffffffffffffff1681526020019081526020016000206000015403610ba6576040517f08c379a0000000000000000000000000000000000000000000000000000000008152600401610b9d90611aeb565b60405180910390fd5b81600660003373ffffffffffffffffffffffffffffffffffffffff1673ffffffffffffffffffffffffffffffffffffffff1681526020019081526020016000206000015414610c2a576040517f08c379a0000000000000000000000000000000000000000000000000000000008152600401610c2190611b57565b60405180910390fd5b6000600560003373ffffffffffffffffffffffffffffffffffffffff1673ffffffffffffffffffffffffffffffffffffffff1681526020019081526020016000208281548110610c7d57610c7c611847565b5b90600052602060002090600502016000015403610ccf576040517f08c379a0000000000000000000000000000000000000000000000000000000008152600401610cc690611be9565b60405180910390fd5b83600560008573ffffffffffffffffffffffffffffffffffffffff1673ffffffffffffffffffffffffffffffffffffffff1681526020019081526020016000208281548110610d2157610d20611847565b5b90600052602060002090600502016003016000828254610d4191906118a5565b9250508190555050505050565b600360009054906101000a900473ffffffffffffffffffffffffffffffffffffffff1681565b8273ffffffffffffffffffffffffffffffffffffffff16600660003373ffffffffffffffffffffffffffffffffffffffff1673ffffffffffffffffffffffffffffffffffffffff16815260200190815260200160002060010160009054906101000a900473ffffffffffffffffffffffffffffffffffffffff1673ffffffffffffffffffffffffffffffffffffffff1614610e44576040517f08c379a0000000000000000000000000000000000000000000000000000000008152600401610e3b90611a7f565b60405180910390fd5b6000600660003373ffffffffffffffffffffffffffffffffffffffff1673ffffffffffffffffffffffffffffffffffffffff1681526020019081526020016000206000015403610ec9576040517f08c379a0000000000000000000000000000000000000000000000000000000008152600401610ec090611aeb565b60405180910390fd5b81600660003373ffffffffffffffffffffffffffffffffffffffff1673ffffffffffffffffffffffffffffffffffffffff1681526020019081526020016000206000015414610f4d576040517f08c379a0000000000000000000000000000000000000000000000000000000008152600401610f4490611b57565b60405180910390fd5b6000600560003373ffffffffffffffffffffffffffffffffffffffff1673ffffffffffffffffffffffffffffffffffffffff1681526020019081526020016000208281548110610fa057610f9f611847565b5b90600052602060002090600502016000015403610ff2576040517f08c379a0000000000000000000000000000000000000000000000000000000008152600401610fe990611be9565b60405180910390fd5b600060646003866110039190611c09565b61100d9190611c7a565b905060025442101561125457808561102591906118a5565b600560008673ffffffffffffffffffffffffffffffffffffffff1673ffffffffffffffffffffffffffffffffffffffff168152602001908152602001600020838154811061107657611075611847565b5b90600052602060002090600502016003015410156110c9576040517f08c379a00000000000000000000000000000000000000000000000000000000081526004016110c090611cf7565b60405180910390fd5b80600560008673ffffffffffffffffffffffffffffffffffffffff1673ffffffffffffffffffffffffffffffffffffffff168152602001908152602001600020838154811061111b5761111a611847565b5b9060005260206000209060050201600301600082825461113b9190611d17565b92505081905550600360009054906101000a900473ffffffffffffffffffffffffffffffffffffffff1673ffffffffffffffffffffffffffffffffffffffff166108fc829081150290604051600060405180830381858888f193505050501580156111aa573d6000803e3d6000fd5b5084600560008673ffffffffffffffffffffffffffffffffffffffff1673ffffffffffffffffffffffffffffffffffffffff16815260200190815260200160002083815481106111fd576111fc611847565b5b9060005260206000209060050201600301541161124f576040517f08c379a000000000000000000000000000000000000000000000000000000000815260040161124690611dbd565b60405180910390fd5b6112fa565b84600560008673ffffffffffffffffffffffffffffffffffffffff1673ffffffffffffffffffffffffffffffffffffffff16815260200190815260200160002083815481106112a6576112a5611847565b5b90600052602060002090600502016003015410156112f9576040517f08c379a00000000000000000000000000000000000000000000000000000000081526004016112f090611e29565b60405180910390fd5b5b84600560008673ffffffffffffffffffffffffffffffffffffffff1673ffffffffffffffffffffffffffffffffffffffff168152602001908152602001600020838154811061134c5761134b611847565b5b9060005260206000209060050201600301600082825461136c9190611d17565b925050819055505050505050565b6005602052816000526040600020818154811061139657600080fd5b9060005260206000209060050201600091509150508060000154908060010154908060020160009054906101000a900473ffffffffffffffffffffffffffffffffffffffff16908060030154908060040160009054906101000a900460ff16905085565b60066020528060005260406000206000915090508060000154908060010160009054906101000a900473ffffffffffffffffffffffffffffffffffffffff16908060010160149054906101000a900460ff16905083565b60046020528060005260406000206000915090505481565b6000600560003373ffffffffffffffffffffffffffffffffffffffff1673ffffffffffffffffffffffffffffffffffffffff16815260200190815260200160002080549050905090565b60005481565b60015481565b60025481565b6000819050919050565b6114d8816114c5565b82525050565b60006020820190506114f360008301846114cf565b92915050565b600080fd5b611507816114c5565b811461151257600080fd5b50565b600081359050611524816114fe565b92915050565b600073ffffffffffffffffffffffffffffffffffffffff82169050919050565b60006115558261152a565b9050919050565b6115658161154a565b811461157057600080fd5b50565b6000813590506115828161155c565b92915050565b6002811061159557600080fd5b50565b6000813590506115a781611588565b92915050565b6000806000606084860312156115c6576115c56114f9565b5b60006115d486828701611515565b93505060206115e586828701611573565b92505060406115f686828701611598565b9150509250925092565b6000806000806080858703121561161a576116196114f9565b5b600061162887828801611515565b945050602061163987828801611573565b935050604061164a87828801611515565b925050606061165b87828801611515565b91505092959194509250565b6116708161154a565b82525050565b600060208201905061168b6000830184611667565b92915050565b600080604083850312156116a8576116a76114f9565b5b60006116b685828601611573565b92505060206116c785828601611515565b9150509250929050565b7f4e487b7100000000000000000000000000000000000000000000000000000000600052602160045260246000fd5b60028110611711576117106116d1565b5b50565b600081905061172282611700565b919050565b600061173282611714565b9050919050565b61174281611727565b82525050565b600060a08201905061175d60008301886114cf565b61176a60208301876114cf565b6117776040830186611667565b61178460608301856114cf565b6117916080830184611739565b9695505050505050565b6000602082840312156117b1576117b06114f9565b5b60006117bf84828501611573565b91505092915050565b600281106117d9576117d86116d1565b5b50565b60008190506117ea826117c8565b919050565b60006117fa826117dc565b9050919050565b61180a816117ef565b82525050565b600060608201905061182560008301866114cf565b6118326020830185611667565b61183f6040830184611801565b949350505050565b7f4e487b7100000000000000000000000000000000000000000000000000000000600052603260045260246000fd5b7f4e487b7100000000000000000000000000000000000000000000000000000000600052601160045260246000fd5b60006118b0826114c5565b91506118bb836114c5565b92508282019050808211156118d3576118d2611876565b5b92915050565b600082825260208201905092915050565b7f5573657220616c72656164792072656769737465726564000000000000000000600082015250565b60006119206017836118d9565b915061192b826118ea565b602082019050919050565b6000602082019050818103600083015261194f81611913565b9050919050565b6000611961826114c5565b91507fffffffffffffffffffffffffffffffffffffffffffffffffffffffffffffffff820361199357611992611876565b5b600182019050919050565b7f4a6f696e2062616e6b206265666f7265206372656174696e672061636f756e74600082015250565b60006119d46020836118d9565b91506119df8261199e565b602082019050919050565b60006020820190508181036000830152611a03816119c7565b9050919050565b6000604082019050611a1f60008301856114cf565b611a2c60208301846114cf565b9392505050565b7f4e6f2061636365737320746f2074686973206163636f756e7400000000000000600082015250565b6000611a696019836118d9565b9150611a7482611a33565b602082019050919050565b60006020820190508181036000830152611a9881611a5c565b9050919050565b7f4e6f206163636f756e7420637265617465640000000000000000000000000000600082015250565b6000611ad56012836118d9565b9150611ae082611a9f565b602082019050919050565b60006020820190508181036000830152611b0481611ac8565b9050919050565b7f54686973206973206e6f7420796f75722062616e6b206163636f756e74000000600082015250565b6000611b41601d836118d9565b9150611b4c82611b0b565b602082019050919050565b60006020820190508181036000830152611b7081611b34565b9050919050565b7f4163636f756e742077697468207468617420696420646f6573206e6f7420657860008201527f6973740000000000000000000000000000000000000000000000000000000000602082015250565b6000611bd36023836118d9565b9150611bde82611b77565b604082019050919050565b60006020820190508181036000830152611c0281611bc6565b9050919050565b6000611c14826114c5565b9150611c1f836114c5565b9250828202611c2d816114c5565b91508282048414831517611c4457611c43611876565b5b5092915050565b7f4e487b7100000000000000000000000000000000000000000000000000000000600052601260045260246000fd5b6000611c85826114c5565b9150611c90836114c5565b925082611ca057611c9f611c4b565b5b828204905092915050565b7f6e6f7420656e6f756774682070656e616c747920616d6f756e74000000000000600082015250565b6000611ce1601a836118d9565b9150611cec82611cab565b602082019050919050565b60006020820190508181036000830152611d1081611cd4565b9050919050565b6000611d22826114c5565b9150611d2d836114c5565b9250828203905081811115611d4557611d44611876565b5b92915050565b7f4e6f7420656e6f75676820616d6f756e74206c65667420746f2077697468647260008201527f61772061667465722070656e616c747900000000000000000000000000000000602082015250565b6000611da76030836118d9565b9150611db282611d4b565b604082019050919050565b60006020820190508181036000830152611dd681611d9a565b9050919050565b7f4e6f7420656e6f7567682062616c616e63650000000000000000000000000000600082015250565b6000611e136012836118d9565b9150611e1e82611ddd565b602082019050919050565b60006020820190508181036000830152611e4281611e06565b905091905056fea26469706673582212200d1cd92fed170663071bb811eab91ebd2e4303c2b2479ab39e3b2b4e4011dcca64736f6c634300081c0033a26469706673582212200b58548081659f47cea520d8349a6f10c37c5c5d51389cd06d9cde993871abca64736f6c634300081c0033",
  "linkReferences": {},
  "deployedLinkReferences": {}
}